{
  "_format": "hh-sol-artifact-1",
  "contractName": "ConfidentialVault",
  "sourceName": "contracts/ConfidentialVault.sol",
  "abi": [
    {
      "anonymous": false,
      "inputs": [
        {
          "indexed": true,
          "internalType": "address",
          "name": "user",
          "type": "address"
        },
        {
          "indexed": false,
          "internalType": "uint256",
          "name": "ts",
          "type": "uint256"
        },
        {
          "indexed": false,
          "internalType": "uint256",
          "name": "size",
          "type": "uint256"
        }
      ],
      "name": "MetricSubmitted",
      "type": "event"
    },
    {
      "anonymous": false,
      "inputs": [
        {
          "indexed": true,
          "internalType": "address",
          "name": "user",
          "type": "address"
        },
        {
          "indexed": false,
          "internalType": "uint256",
          "name": "ts",
          "type": "uint256"
        },
        {
          "indexed": false,
          "internalType": "uint256",
          "name": "size",
          "type": "uint256"
        }
      ],
      "name": "ResultPosted",
      "type": "event"
    },
    {
      "inputs": [],
      "name": "getMyEncryptedResult",
      "outputs": [
        {
          "internalType": "bytes",
          "name": "",
          "type": "bytes"
        }
      ],
      "stateMutability": "view",
      "type": "function"
    },
    {
      "inputs": [],
      "name": "getMyMetric",
      "outputs": [
        {
          "internalType": "bytes",
          "name": "",
          "type": "bytes"
        },
        {
          "internalType": "uint256",
          "name": "",
          "type": "uint256"
        }
      ],
      "stateMutability": "view",
      "type": "function"
    },
    {
      "inputs": [
        {
          "internalType": "address",
          "name": "user",
          "type": "address"
        },
        {
          "internalType": "bytes",
          "name": "resultCipher",
          "type": "bytes"
        }
      ],
      "name": "postEncryptedResult",
      "outputs": [],
      "stateMutability": "nonpayable",
      "type": "function"
    },
    {
      "inputs": [
        {
          "internalType": "bytes",
          "name": "_cipher",
          "type": "bytes"
        }
      ],
      "name": "submitMetric",
      "outputs": [],
      "stateMutability": "nonpayable",
      "type": "function"
    }
  ],
  "bytecode": "0x608060405234801561001057600080fd5b50610b08806100206000396000f3fe608060405234801561001057600080fd5b506004361061004c5760003560e01c806378d08d49146100515780638d7b1b5014610070578063a3b0b1d31461008e578063e056a8cb146100aa575b600080fd5b6100596100c6565b6040516100679291906104f5565b60405180910390f35b6100786101c5565b6040516100859190610525565b60405180910390f35b6100a860048036038101906100a391906105b6565b610294565b005b6100c460048036038101906100bf9190610661565b6103a5565b005b60606000806000803373ffffffffffffffffffffffffffffffffffffffff1673ffffffffffffffffffffffffffffffffffffffff168152602001908152602001600020604051806040016040529081600082018054610124906106f0565b80601f0160208091040260200160405190810160405280929190818152602001828054610150906106f0565b801561019d5780601f106101725761010080835404028352916020019161019d565b820191906000526020600020905b81548152906001019060200180831161018057829003601f168201915b5050505050815260200160018201548152505090508060000151816020015192509250509091565b6060600160003373ffffffffffffffffffffffffffffffffffffffff1673ffffffffffffffffffffffffffffffffffffffff1681526020019081526020016000208054610211906106f0565b80601f016020809104026020016040519081016040528092919081815260200182805461023d906106f0565b801561028a5780601f1061025f5761010080835404028352916020019161028a565b820191906000526020600020905b81548152906001019060200180831161026d57829003601f168201915b5050505050905090565b604051806040016040528083838080601f016020809104026020016040519081016040528093929190818152602001838380828437600081840152601f19601f820116905080830192505050505050508152602001428152506000803373ffffffffffffffffffffffffffffffffffffffff1673ffffffffffffffffffffffffffffffffffffffff168152602001908152602001600020600082015181600001908161034091906108fc565b50602082015181600101559050503373ffffffffffffffffffffffffffffffffffffffff167fa1b07ddace454cb76b759cc2d74dd4095d6fe110463d03acd8f2d07f55171b1242848490506040516103999291906109ce565b60405180910390a25050565b8181600160008673ffffffffffffffffffffffffffffffffffffffff1673ffffffffffffffffffffffffffffffffffffffff16815260200190815260200160002091826103f3929190610a02565b508273ffffffffffffffffffffffffffffffffffffffff167f6c0f4aad19f7113f311e38debf724604d7bed293a7c82b8833ab2bc59dcaea0e428484905060405161043f9291906109ce565b60405180910390a2505050565b600081519050919050565b600082825260208201905092915050565b60005b8381101561048657808201518184015260208101905061046b565b60008484015250505050565b6000601f19601f8301169050919050565b60006104ae8261044c565b6104b88185610457565b93506104c8818560208601610468565b6104d181610492565b840191505092915050565b6000819050919050565b6104ef816104dc565b82525050565b6000604082019050818103600083015261050f81856104a3565b905061051e60208301846104e6565b9392505050565b6000602082019050818103600083015261053f81846104a3565b905092915050565b600080fd5b600080fd5b600080fd5b600080fd5b600080fd5b60008083601f84011261057657610575610551565b5b8235905067ffffffffffffffff81111561059357610592610556565b5b6020830191508360018202830111156105af576105ae61055b565b5b9250929050565b600080602083850312156105cd576105cc610547565b5b600083013567ffffffffffffffff8111156105eb576105ea61054c565b5b6105f785828601610560565b92509250509250929050565b600073ffffffffffffffffffffffffffffffffffffffff82169050919050565b600061062e82610603565b9050919050565b61063e81610623565b811461064957600080fd5b50565b60008135905061065b81610635565b92915050565b60008060006040848603121561067a57610679610547565b5b60006106888682870161064c565b935050602084013567ffffffffffffffff8111156106a9576106a861054c565b5b6106b586828701610560565b92509250509250925092565b7f4e487b7100000000000000000000000000000000000000000000000000000000600052602260045260246000fd5b6000600282049050600182168061070857607f821691505b60208210810361071b5761071a6106c1565b5b50919050565b7f4e487b7100000000000000000000000000000000000000000000000000000000600052604160045260246000fd5b60008190508160005260206000209050919050565b60006020601f8301049050919050565b600082821b905092915050565b6000600883026107b27fffffffffffffffffffffffffffffffffffffffffffffffffffffffffffffffff82610775565b6107bc8683610775565b95508019841693508086168417925050509392505050565b6000819050919050565b60006107f96107f46107ef846104dc565b6107d4565b6104dc565b9050919050565b6000819050919050565b610813836107de565b61082761081f82610800565b848454610782565b825550505050565b600090565b61083c61082f565b61084781848461080a565b505050565b5b8181101561086b57610860600082610834565b60018101905061084d565b5050565b601f8211156108b05761088181610750565b61088a84610765565b81016020851015610899578190505b6108ad6108a585610765565b83018261084c565b50505b505050565b600082821c905092915050565b60006108d3600019846008026108b5565b1980831691505092915050565b60006108ec83836108c2565b9150826002028217905092915050565b6109058261044c565b67ffffffffffffffff81111561091e5761091d610721565b5b61092882546106f0565b61093382828561086f565b600060209050601f8311600181146109665760008415610954578287015190505b61095e85826108e0565b8655506109c6565b601f19841661097486610750565b60005b8281101561099c57848901518255600182019150602085019450602081019050610977565b868310156109b957848901516109b5601f8916826108c2565b8355505b6001600288020188555050505b505050505050565b60006040820190506109e360008301856104e6565b6109f060208301846104e6565b9392505050565b600082905092915050565b610a0c83836109f7565b67ffffffffffffffff811115610a2557610a24610721565b5b610a2f82546106f0565b610a3a82828561086f565b6000601f831160018114610a695760008415610a57578287013590505b610a6185826108e0565b865550610ac9565b601f198416610a7786610750565b60005b82811015610a9f57848901358255600182019150602085019450602081019050610a7a565b86831015610abc5784890135610ab8601f8916826108c2565b8355505b6001600288020188555050505b5050505050505056fea2646970667358221220f6097b9f312e9f7718c198bf17745dfd3960c9f80da67d353867e1448ed33b1864736f6c63430008140033",
  "linkReferences": {},
  "deployedLinkReferences": {}
}